{
  "_format": "hh-sol-artifact-1",
  "contractName": "Campaign",
  "sourceName": "contracts/Campaign.sol",
  "abi": [
    {
      "inputs": [
        {
          "internalType": "string",
          "name": "campaignTitle",
          "type": "string"
        },
        {
          "internalType": "uint256",
          "name": "readCampaignAmount",
          "type": "uint256"
        },
        {
          "internalType": "string",
          "name": "imgURL",
          "type": "string"
        },
        {
          "internalType": "string",
          "name": "storyURL",
          "type": "string"
        },
        {
          "internalType": "address",
          "name": "campaignOwner",
          "type": "address"
        }
      ],
      "stateMutability": "nonpayable",
      "type": "constructor"
    },
    {
      "anonymous": false,
      "inputs": [
        {
          "indexed": true,
          "internalType": "address",
          "name": "donor",
          "type": "address"
        },
        {
          "indexed": true,
          "internalType": "uint256",
          "name": "amount",
          "type": "uint256"
        },
        {
          "indexed": true,
          "internalType": "uint256",
          "name": "timestamp",
          "type": "uint256"
        }
      ],
      "name": "donated",
      "type": "event"
    },
    {
      "inputs": [],
      "name": "denote",
      "outputs": [],
      "stateMutability": "payable",
      "type": "function"
    },
    {
      "inputs": [],
      "name": "images",
      "outputs": [
        {
          "internalType": "string",
          "name": "",
          "type": "string"
        }
      ],
      "stateMutability": "view",
      "type": "function"
    },
    {
      "inputs": [],
      "name": "owner",
      "outputs": [
        {
          "internalType": "address payable",
          "name": "",
          "type": "address"
        }
      ],
      "stateMutability": "view",
      "type": "function"
    },
    {
      "inputs": [],
      "name": "receivedAmount",
      "outputs": [
        {
          "internalType": "uint256",
          "name": "",
          "type": "uint256"
        }
      ],
      "stateMutability": "view",
      "type": "function"
    },
    {
      "inputs": [],
      "name": "requiredAmount",
      "outputs": [
        {
          "internalType": "uint256",
          "name": "",
          "type": "uint256"
        }
      ],
      "stateMutability": "view",
      "type": "function"
    },
    {
      "inputs": [],
      "name": "story",
      "outputs": [
        {
          "internalType": "string",
          "name": "",
          "type": "string"
        }
      ],
      "stateMutability": "view",
      "type": "function"
    },
    {
      "inputs": [],
      "name": "title",
      "outputs": [
        {
          "internalType": "string",
          "name": "",
          "type": "string"
        }
      ],
      "stateMutability": "view",
      "type": "function"
    }
  ],
  "bytecode": "0x60806040523480156200001157600080fd5b5060405162000c5b38038062000c5b8339818101604052810190620000379190620003c2565b84600090805190602001906200004f929190620000d5565b508360018190555082600290805190602001906200006f929190620000d5565b50816003908051906020019062000088929190620000d5565b5080600460006101000a81548173ffffffffffffffffffffffffffffffffffffffff021916908373ffffffffffffffffffffffffffffffffffffffff16021790555050505050506200050c565b828054620000e390620004d6565b90600052602060002090601f01602090048101928262000107576000855562000153565b82601f106200012257805160ff191683800117855562000153565b8280016001018555821562000153579182015b828111156200015257825182559160200191906001019062000135565b5b50905062000162919062000166565b5090565b5b808211156200018157600081600090555060010162000167565b5090565b6000604051905090565b600080fd5b600080fd5b600080fd5b600080fd5b6000601f19601f8301169050919050565b7f4e487b7100000000000000000000000000000000000000000000000000000000600052604160045260246000fd5b620001ee82620001a3565b810181811067ffffffffffffffff8211171562000210576200020f620001b4565b5b80604052505050565b60006200022562000185565b9050620002338282620001e3565b919050565b600067ffffffffffffffff821115620002565762000255620001b4565b5b6200026182620001a3565b9050602081019050919050565b60005b838110156200028e57808201518184015260208101905062000271565b838111156200029e576000848401525b50505050565b6000620002bb620002b58462000238565b62000219565b905082815260208101848484011115620002da57620002d96200019e565b5b620002e78482856200026e565b509392505050565b600082601f83011262000307576200030662000199565b5b815162000319848260208601620002a4565b91505092915050565b6000819050919050565b620003378162000322565b81146200034357600080fd5b50565b60008151905062000357816200032c565b92915050565b600073ffffffffffffffffffffffffffffffffffffffff82169050919050565b60006200038a826200035d565b9050919050565b6200039c816200037d565b8114620003a857600080fd5b50565b600081519050620003bc8162000391565b92915050565b600080600080600060a08688031215620003e157620003e06200018f565b5b600086015167ffffffffffffffff81111562000402576200040162000194565b5b6200041088828901620002ef565b9550506020620004238882890162000346565b945050604086015167ffffffffffffffff81111562000447576200044662000194565b5b6200045588828901620002ef565b935050606086015167ffffffffffffffff81111562000479576200047862000194565b5b6200048788828901620002ef565b92505060806200049a88828901620003ab565b9150509295509295909350565b7f4e487b7100000000000000000000000000000000000000000000000000000000600052602260045260246000fd5b60006002820490506001821680620004ef57607f821691505b60208210811415620005065762000505620004a7565b5b50919050565b61073f806200051c6000396000f3fe6080604052600436106100705760003560e01c806348b9ef401161004e57806348b9ef40146100d55780634a79d50c146101005780638da5cb5b1461012b5780639632e7201461015657610070565b806303c34427146100755780633cdf644a1461007f57806346c922d1146100aa575b600080fd5b61007d610181565b005b34801561008b57600080fd5b50610094610290565b6040516100a19190610505565b60405180910390f35b3480156100b657600080fd5b506100bf61031e565b6040516100cc9190610505565b60405180910390f35b3480156100e157600080fd5b506100ea6103ac565b6040516100f79190610540565b60405180910390f35b34801561010c57600080fd5b506101156103b2565b6040516101229190610505565b60405180910390f35b34801561013757600080fd5b50610140610440565b60405161014d919061059c565b60405180910390f35b34801561016257600080fd5b5061016b610466565b6040516101789190610540565b60405180910390f35b600554600154116101c7576040517f08c379a00000000000000000000000000000000000000000000000000000000081526004016101be90610603565b60405180910390fd5b600460009054906101000a900473ffffffffffffffffffffffffffffffffffffffff1673ffffffffffffffffffffffffffffffffffffffff166108fc349081150290604051600060405180830381858888f1935050505015801561022f573d6000803e3d6000fd5b5034600560008282546102429190610652565b9250508190555042343373ffffffffffffffffffffffffffffffffffffffff167fe6add99d06d9ad7fc456e746aa162eed6211c5002ef2dacdd67b8d2016822fba60405160405180910390a4565b6002805461029d906106d7565b80601f01602080910402602001604051908101604052809291908181526020018280546102c9906106d7565b80156103165780601f106102eb57610100808354040283529160200191610316565b820191906000526020600020905b8154815290600101906020018083116102f957829003601f168201915b505050505081565b6003805461032b906106d7565b80601f0160208091040260200160405190810160405280929190818152602001828054610357906106d7565b80156103a45780601f10610379576101008083540402835291602001916103a4565b820191906000526020600020905b81548152906001019060200180831161038757829003601f168201915b505050505081565b60015481565b600080546103bf906106d7565b80601f01602080910402602001604051908101604052809291908181526020018280546103eb906106d7565b80156104385780601f1061040d57610100808354040283529160200191610438565b820191906000526020600020905b81548152906001019060200180831161041b57829003601f168201915b505050505081565b600460009054906101000a900473ffffffffffffffffffffffffffffffffffffffff1681565b60055481565b600081519050919050565b600082825260208201905092915050565b60005b838110156104a657808201518184015260208101905061048b565b838111156104b5576000848401525b50505050565b6000601f19601f8301169050919050565b60006104d78261046c565b6104e18185610477565b93506104f1818560208601610488565b6104fa816104bb565b840191505092915050565b6000602082019050818103600083015261051f81846104cc565b905092915050565b6000819050919050565b61053a81610527565b82525050565b60006020820190506105556000830184610531565b92915050565b600073ffffffffffffffffffffffffffffffffffffffff82169050919050565b60006105868261055b565b9050919050565b6105968161057b565b82525050565b60006020820190506105b1600083018461058d565b92915050565b7f5265717569726520616d6f756e742069732066756c6c66696c6c656400000000600082015250565b60006105ed601c83610477565b91506105f8826105b7565b602082019050919050565b6000602082019050818103600083015261061c816105e0565b9050919050565b7f4e487b7100000000000000000000000000000000000000000000000000000000600052601160045260246000fd5b600061065d82610527565b915061066883610527565b9250827fffffffffffffffffffffffffffffffffffffffffffffffffffffffffffffffff0382111561069d5761069c610623565b5b828201905092915050565b7f4e487b7100000000000000000000000000000000000000000000000000000000600052602260045260246000fd5b600060028204905060018216806106ef57607f821691505b60208210811415610703576107026106a8565b5b5091905056fea26469706673582212206e8d64f41873a9a54807f4c14cfd24da2afba5cbe3cbd3e562c29d513f40346864736f6c634300080a0033",
  "linkReferences": {},
  "deployedLinkReferences": {}
}